:10000000111E75B0FFD2A2C2A1D2A0B11AD2A1B165
:100010001A20A2FDC2A0112B1143B10D80E9743842
:10002000116A740E116A7401116A22E5B075F064E8
:10003000A475F0FF8475F00A84AFF075F00A84AE01
:10004000F0FD227401116A7480116A7C0D740090B5
:100050000500E4931177A3E4DCF8ED24301177EE8A
:1000600024301177EF2430117722B10DC2A5C2A63A
:10007000D2A7F590C2A722B10DD2A5C2A6D2A7F5EC
:0400800090C2A72261
:10050000534F494C4D4F4953545552453A7805790C
:0F051000467A69DAFED9FAD8F6227EAADEFE22F2
:00000001FF
